{
  "contractName": "Election",
  "abi": [
    {
      "inputs": [],
      "stateMutability": "nonpayable",
      "type": "constructor"
    },
    {
      "inputs": [
        {
          "internalType": "uint256",
          "name": "",
          "type": "uint256"
        }
      ],
      "name": "contestants",
      "outputs": [
        {
          "internalType": "uint256",
          "name": "id",
          "type": "uint256"
        },
        {
          "internalType": "string",
          "name": "name",
          "type": "string"
        },
        {
          "internalType": "uint256",
          "name": "voteCount",
          "type": "uint256"
        }
      ],
      "stateMutability": "view",
      "type": "function",
      "constant": true
    },
    {
      "inputs": [],
      "name": "contestantsCount",
      "outputs": [
        {
          "internalType": "uint256",
          "name": "",
          "type": "uint256"
        }
      ],
      "stateMutability": "view",
      "type": "function",
      "constant": true
    },
    {
      "inputs": [],
      "name": "state",
      "outputs": [
        {
          "internalType": "enum Election.PHASE",
          "name": "",
          "type": "uint8"
        }
      ],
      "stateMutability": "view",
      "type": "function",
      "constant": true
    },
    {
      "inputs": [
        {
          "internalType": "address",
          "name": "",
          "type": "address"
        }
      ],
      "name": "voters",
      "outputs": [
        {
          "internalType": "bool",
          "name": "hasVoted",
          "type": "bool"
        },
        {
          "internalType": "bool",
          "name": "isRegistered",
          "type": "bool"
        }
      ],
      "stateMutability": "view",
      "type": "function",
      "constant": true
    },
    {
      "inputs": [
        {
          "internalType": "enum Election.PHASE",
          "name": "x",
          "type": "uint8"
        }
      ],
      "name": "changeState",
      "outputs": [],
      "stateMutability": "nonpayable",
      "type": "function"
    },
    {
      "inputs": [
        {
          "internalType": "string",
          "name": "_name",
          "type": "string"
        }
      ],
      "name": "addContestant",
      "outputs": [],
      "stateMutability": "nonpayable",
      "type": "function"
    },
    {
      "inputs": [
        {
          "internalType": "address",
          "name": "user",
          "type": "address"
        }
      ],
      "name": "voterRegisteration",
      "outputs": [],
      "stateMutability": "nonpayable",
      "type": "function"
    },
    {
      "inputs": [
        {
          "internalType": "uint256",
          "name": "_contestantId",
          "type": "uint256"
        }
      ],
      "name": "vote",
      "outputs": [],
      "stateMutability": "nonpayable",
      "type": "function"
    },
    {
      "inputs": [],
      "name": "getContestantCount",
      "outputs": [
        {
          "internalType": "uint256",
          "name": "",
          "type": "uint256"
        }
      ],
      "stateMutability": "view",
      "type": "function",
      "constant": true
    },
    {
      "inputs": [],
      "name": "getPhase",
      "outputs": [
        {
          "internalType": "uint256",
          "name": "",
          "type": "uint256"
        }
      ],
      "stateMutability": "view",
      "type": "function",
      "constant": true
    },
    {
      "inputs": [],
      "name": "getResult",
      "outputs": [
        {
          "internalType": "uint256[]",
          "name": "result",
          "type": "uint256[]"
        }
      ],
      "stateMutability": "view",
      "type": "function",
      "constant": true
    }
  ],
  "bytecode": "0x608060405234801561001057600080fd5b50336000806101000a81548173ffffffffffffffffffffffffffffffffffffffff021916908373ffffffffffffffffffffffffffffffffffffffff1602179055506000600460006101000a81548160ff0219169083600281111561007757610076610081565b5b02179055506100b0565b7f4e487b7100000000000000000000000000000000000000000000000000000000600052602160045260246000fd5b611294806100bf6000396000f3fe608060405234801561001057600080fd5b50600436106100a95760003560e01c8063a3ec138d11610071578063a3ec138d1461013c578063c19d93fb1461016d578063de2927891461018b578063dfd50f52146101a9578063ec63d1c8146101db578063eced0280146101f9576100a9565b80630121b93f146100ae578063090bdf4f146100ca578063268f1153146100e8578063698ceb5f14610104578063832c0aca14610120575b600080fd5b6100c860048036038101906100c39190610970565b610217565b005b6100d26103b1565b6040516100df91906109ac565b60405180910390f35b61010260048036038101906100fd91906109ec565b6103bb565b005b61011e60048036038101906101199190610a77565b61047f565b005b61013a60048036038101906101359190610bea565b610577565b005b61015660048036038101906101519190610a77565b61068c565b604051610164929190610c4e565b60405180910390f35b6101756106ca565b6040516101829190610cee565b60405180910390f35b6101936106dd565b6040516101a09190610dc7565b60405180910390f35b6101c360048036038101906101be9190610970565b6107dd565b6040516101d293929190610e68565b60405180910390f35b6101e361088f565b6040516101f091906109ac565b60405180910390f35b610201610895565b60405161020e91906109ac565b60405180910390f35b600180600281111561022c5761022b610c77565b5b600460009054906101000a900460ff16600281111561024e5761024d610c77565b5b1461025857600080fd5b600260003373ffffffffffffffffffffffffffffffffffffffff1673ffffffffffffffffffffffffffffffffffffffff16815260200190815260200160002060000160019054906101000a900460ff166102b157600080fd5b600260003373ffffffffffffffffffffffffffffffffffffffff1673ffffffffffffffffffffffffffffffffffffffff16815260200190815260200160002060000160009054906101000a900460ff161561030b57600080fd5b60008211801561031d57506003548211155b61032657600080fd5b60016000838152602001908152602001600020600201600081548092919061034d90610ed5565b91905055506001600260003373ffffffffffffffffffffffffffffffffffffffff1673ffffffffffffffffffffffffffffffffffffffff16815260200190815260200160002060000160006101000a81548160ff0219169083151502179055505050565b6000600354905090565b60008054906101000a900473ffffffffffffffffffffffffffffffffffffffff1673ffffffffffffffffffffffffffffffffffffffff163373ffffffffffffffffffffffffffffffffffffffff161461041357600080fd5b600460009054906101000a900460ff16600281111561043557610434610c77565b5b81600281111561044857610447610c77565b5b1161045257600080fd5b80600460006101000a81548160ff0219169083600281111561047757610476610c77565b5b021790555050565b60008054906101000a900473ffffffffffffffffffffffffffffffffffffffff1673ffffffffffffffffffffffffffffffffffffffff163373ffffffffffffffffffffffffffffffffffffffff16146104d757600080fd5b60008060028111156104ec576104eb610c77565b5b600460009054906101000a900460ff16600281111561050e5761050d610c77565b5b1461051857600080fd5b6001600260008473ffffffffffffffffffffffffffffffffffffffff1673ffffffffffffffffffffffffffffffffffffffff16815260200190815260200160002060000160016101000a81548160ff0219169083151502179055505050565b60008054906101000a900473ffffffffffffffffffffffffffffffffffffffff1673ffffffffffffffffffffffffffffffffffffffff163373ffffffffffffffffffffffffffffffffffffffff16146105cf57600080fd5b60008060028111156105e4576105e3610c77565b5b600460009054906101000a900460ff16600281111561060657610605610c77565b5b1461061057600080fd5b6003600081548092919061062390610ed5565b919050555060405180606001604052806003548152602001838152602001600081525060016000600354815260200190815260200160002060008201518160000155602082015181600101908161067a9190611129565b50604082015181600201559050505050565b60026020528060005260406000206000915090508060000160009054906101000a900460ff16908060000160019054906101000a900460ff16905082565b600460009054906101000a900460ff1681565b606060028060028111156106f4576106f3610c77565b5b600460009054906101000a900460ff16600281111561071657610715610c77565b5b1461072057600080fd5b600060035467ffffffffffffffff81111561073e5761073d610abf565b5b60405190808252806020026020018201604052801561076c5781602001602082028036833780820191505090505b5090506000600190505b60035481116107d4576001600082815260200190815260200160002060020154826001836107a491906111fb565b815181106107b5576107b461122f565b5b60200260200101818152505080806107cc90610ed5565b915050610776565b50809250505090565b600160205280600052604060002060009150905080600001549080600101805461080690610f4c565b80601f016020809104026020016040519081016040528092919081815260200182805461083290610f4c565b801561087f5780601f106108545761010080835404028352916020019161087f565b820191906000526020600020905b81548152906001019060200180831161086257829003601f168201915b5050505050908060020154905083565b60035481565b60008060028111156108aa576108a9610c77565b5b600460009054906101000a900460ff1660028111156108cc576108cb610c77565b5b036108da5760009050610923565b600160028111156108ee576108ed610c77565b5b600460009054906101000a900460ff1660028111156109105761090f610c77565b5b0361091e5760019050610923565b600290505b90565b6000604051905090565b600080fd5b600080fd5b6000819050919050565b61094d8161093a565b811461095857600080fd5b50565b60008135905061096a81610944565b92915050565b60006020828403121561098657610985610930565b5b60006109948482850161095b565b91505092915050565b6109a68161093a565b82525050565b60006020820190506109c1600083018461099d565b92915050565b600381106109d457600080fd5b50565b6000813590506109e6816109c7565b92915050565b600060208284031215610a0257610a01610930565b5b6000610a10848285016109d7565b91505092915050565b600073ffffffffffffffffffffffffffffffffffffffff82169050919050565b6000610a4482610a19565b9050919050565b610a5481610a39565b8114610a5f57600080fd5b50565b600081359050610a7181610a4b565b92915050565b600060208284031215610a8d57610a8c610930565b5b6000610a9b84828501610a62565b91505092915050565b600080fd5b600080fd5b6000601f19601f8301169050919050565b7f4e487b7100000000000000000000000000000000000000000000000000000000600052604160045260246000fd5b610af782610aae565b810181811067ffffffffffffffff82111715610b1657610b15610abf565b5b80604052505050565b6000610b29610926565b9050610b358282610aee565b919050565b600067ffffffffffffffff821115610b5557610b54610abf565b5b610b5e82610aae565b9050602081019050919050565b82818337600083830152505050565b6000610b8d610b8884610b3a565b610b1f565b905082815260208101848484011115610ba957610ba8610aa9565b5b610bb4848285610b6b565b509392505050565b600082601f830112610bd157610bd0610aa4565b5b8135610be1848260208601610b7a565b91505092915050565b600060208284031215610c0057610bff610930565b5b600082013567ffffffffffffffff811115610c1e57610c1d610935565b5b610c2a84828501610bbc565b91505092915050565b60008115159050919050565b610c4881610c33565b82525050565b6000604082019050610c636000830185610c3f565b610c706020830184610c3f565b9392505050565b7f4e487b7100000000000000000000000000000000000000000000000000000000600052602160045260246000fd5b60038110610cb757610cb6610c77565b5b50565b6000819050610cc882610ca6565b919050565b6000610cd882610cba565b9050919050565b610ce881610ccd565b82525050565b6000602082019050610d036000830184610cdf565b92915050565b600081519050919050565b600082825260208201905092915050565b6000819050602082019050919050565b610d3e8161093a565b82525050565b6000610d508383610d35565b60208301905092915050565b6000602082019050919050565b6000610d7482610d09565b610d7e8185610d14565b9350610d8983610d25565b8060005b83811015610dba578151610da18882610d44565b9750610dac83610d5c565b925050600181019050610d8d565b5085935050505092915050565b60006020820190508181036000830152610de18184610d69565b905092915050565b600081519050919050565b600082825260208201905092915050565b60005b83811015610e23578082015181840152602081019050610e08565b60008484015250505050565b6000610e3a82610de9565b610e448185610df4565b9350610e54818560208601610e05565b610e5d81610aae565b840191505092915050565b6000606082019050610e7d600083018661099d565b8181036020830152610e8f8185610e2f565b9050610e9e604083018461099d565b949350505050565b7f4e487b7100000000000000000000000000000000000000000000000000000000600052601160045260246000fd5b6000610ee08261093a565b91507fffffffffffffffffffffffffffffffffffffffffffffffffffffffffffffffff8203610f1257610f11610ea6565b5b600182019050919050565b7f4e487b7100000000000000000000000000000000000000000000000000000000600052602260045260246000fd5b60006002820490506001821680610f6457607f821691505b602082108103610f7757610f76610f1d565b5b50919050565b60008190508160005260206000209050919050565b60006020601f8301049050919050565b600082821b905092915050565b600060088302610fdf7fffffffffffffffffffffffffffffffffffffffffffffffffffffffffffffffff82610fa2565b610fe98683610fa2565b95508019841693508086168417925050509392505050565b6000819050919050565b600061102661102161101c8461093a565b611001565b61093a565b9050919050565b6000819050919050565b6110408361100b565b61105461104c8261102d565b848454610faf565b825550505050565b600090565b61106961105c565b611074818484611037565b505050565b5b818110156110985761108d600082611061565b60018101905061107a565b5050565b601f8211156110dd576110ae81610f7d565b6110b784610f92565b810160208510156110c6578190505b6110da6110d285610f92565b830182611079565b50505b505050565b600082821c905092915050565b6000611100600019846008026110e2565b1980831691505092915050565b600061111983836110ef565b9150826002028217905092915050565b61113282610de9565b67ffffffffffffffff81111561114b5761114a610abf565b5b6111558254610f4c565b61116082828561109c565b600060209050601f8311600181146111935760008415611181578287015190505b61118b858261110d565b8655506111f3565b601f1984166111a186610f7d565b60005b828110156111c9578489015182556001820191506020850194506020810190506111a4565b868310156111e657848901516111e2601f8916826110ef565b8355505b6001600288020188555050505b505050505050565b60006112068261093a565b91506112118361093a565b925082820390508181111561122957611228610ea6565b5b92915050565b7f4e487b7100000000000000000000000000000000000000000000000000000000600052603260045260246000fdfea26469706673582212200d86e98bf9865395da6dd8edba352687dcdb0ef5fc7f537ad72b025fccaa80d464736f6c63430008120033",
  "immutableReferences": {},
  "source": "// SPDX-License-Identifier: MIT\r\npragma solidity >=0.4.22 <0.9.0;\r\n\r\ncontract Election{\r\n\t\r\n\tstruct Contestant{\r\n\t\tuint id;\r\n\t\tstring name;\r\n\t\tuint voteCount;\r\n\t}\r\n\r\n\tstruct Voter{\r\n\t\tbool hasVoted;\r\n\t\tbool isRegistered;\r\n\t}\r\n\r\n\taddress admin;\r\n\tmapping(uint => Contestant) public contestants; \r\n    mapping(address => Voter) public voters;\r\n\tuint public contestantsCount;\r\n\tenum PHASE{reg, voting , done}\r\n\tPHASE public state;\r\n\r\n\tmodifier onlyAdmin(){\r\n\t\trequire(msg.sender==admin);\r\n\t\t_;\r\n\t}\r\n\t\r\n\tmodifier validState(PHASE x){\r\n\t    require(state==x);\r\n\t    _;\r\n\t}\r\n\r\n\tconstructor(){\r\n\t\tadmin=msg.sender;\r\n        state=PHASE.reg;\r\n\t}\r\n\r\n    function changeState(PHASE x) onlyAdmin public{\r\n\t\trequire(x > state);\r\n        state = x;\r\n    }\r\n\r\n\tfunction addContestant(string memory _name) public onlyAdmin validState(PHASE.reg){\r\n\t\tcontestantsCount++;\r\n\t\tcontestants[contestantsCount]=Contestant(contestantsCount,_name,0);\r\n\t}\r\n\r\n\tfunction voterRegisteration(address user) public onlyAdmin validState(PHASE.reg){\r\n\t\tvoters[user].isRegistered=true;\r\n\t}\r\n\r\n\tfunction vote(uint _contestantId) public validState(PHASE.voting){\r\n        \r\n\t\trequire(voters[msg.sender].isRegistered);\r\n\t\trequire(!voters[msg.sender].hasVoted);\r\n        require(_contestantId > 0 && _contestantId<=contestantsCount);\r\n\t\tcontestants[_contestantId].voteCount++;\r\n\t\tvoters[msg.sender].hasVoted=true;\r\n\t}\r\n\r\n\tfunction getContestantCount() public view returns (uint) {\r\n\t\treturn contestantsCount;\r\n\t}\r\n\r\n\tfunction getPhase() public view returns (uint) {\r\n\t\tif(state == PHASE.reg){\r\n\t\t\treturn 0;\r\n\t\t}\r\n\t\telse if(state == PHASE.voting){\r\n\t\t\treturn 1;\r\n\t\t}\r\n\t\treturn 2;\r\n\t}\r\n\r\n\tfunction getResult() public view validState(PHASE.done) returns (uint[] memory result){\r\n\t\tuint[] memory result = new uint[](contestantsCount);\r\n\t\tfor(uint i = 1; i <= contestantsCount; i++){\r\n\t\t\tresult[i - 1] = contestants[i].voteCount;\r\n\t\t}\r\n\t\treturn result;\r\n\t}\r\n}",
  "sourcePath": "E:\\votingdapp\\truffle\\contracts\\Election.sol",
  "compiler": {
    "name": "solc",
    "version": "0.8.18+commit.87f61d96.Emscripten.clang"
  },
  "schemaVersion": "3.4.12",
  "updatedAt": "2023-05-06T16:47:37.156Z",
  "networkType": "ethereum",
  "devdoc": {
    "kind": "dev",
    "methods": {},
    "version": 1
  },
  "userdoc": {
    "kind": "user",
    "methods": {},
    "version": 1
  }
}