{
  "contractName": "SimpleStorage",
  "abi": [
    {
      "inputs": [],
      "name": "read",
      "outputs": [
        {
          "internalType": "uint256",
          "name": "",
          "type": "uint256"
        }
      ],
      "stateMutability": "view",
      "type": "function",
      "constant": true
    },
    {
      "inputs": [],
      "name": "multby2",
      "outputs": [
        {
          "internalType": "string",
          "name": "",
          "type": "string"
        }
      ],
      "stateMutability": "view",
      "type": "function",
      "constant": true
    },
    {
      "inputs": [
        {
          "internalType": "string",
          "name": "newValue",
          "type": "string"
        }
      ],
      "name": "write",
      "outputs": [],
      "stateMutability": "nonpayable",
      "type": "function"
    }
  ],
  "bytecode": "0x608060405234801561001057600080fd5b506106d8806100206000396000f3fe608060405234801561001057600080fd5b50600436106100415760003560e01c80632e8cde3a1461004657806357de26a414610064578063ebaac77114610082575b600080fd5b61004e61009e565b60405161005b91906101dc565b60405180910390f35b61006c610130565b6040516100799190610217565b60405180910390f35b61009c6004803603810190610097919061037b565b610139565b005b6060600180546100ad906103f3565b80601f01602080910402602001604051908101604052809291908181526020018280546100d9906103f3565b80156101265780601f106100fb57610100808354040283529160200191610126565b820191906000526020600020905b81548152906001019060200180831161010957829003601f168201915b5050505050905090565b60008054905090565b806001908161014891906105d0565b5050565b600081519050919050565b600082825260208201905092915050565b60005b8381101561018657808201518184015260208101905061016b565b60008484015250505050565b6000601f19601f8301169050919050565b60006101ae8261014c565b6101b88185610157565b93506101c8818560208601610168565b6101d181610192565b840191505092915050565b600060208201905081810360008301526101f681846101a3565b905092915050565b6000819050919050565b610211816101fe565b82525050565b600060208201905061022c6000830184610208565b92915050565b6000604051905090565b600080fd5b600080fd5b600080fd5b600080fd5b7f4e487b7100000000000000000000000000000000000000000000000000000000600052604160045260246000fd5b61028882610192565b810181811067ffffffffffffffff821117156102a7576102a6610250565b5b80604052505050565b60006102ba610232565b90506102c6828261027f565b919050565b600067ffffffffffffffff8211156102e6576102e5610250565b5b6102ef82610192565b9050602081019050919050565b82818337600083830152505050565b600061031e610319846102cb565b6102b0565b90508281526020810184848401111561033a5761033961024b565b5b6103458482856102fc565b509392505050565b600082601f83011261036257610361610246565b5b813561037284826020860161030b565b91505092915050565b6000602082840312156103915761039061023c565b5b600082013567ffffffffffffffff8111156103af576103ae610241565b5b6103bb8482850161034d565b91505092915050565b7f4e487b7100000000000000000000000000000000000000000000000000000000600052602260045260246000fd5b6000600282049050600182168061040b57607f821691505b60208210810361041e5761041d6103c4565b5b50919050565b60008190508160005260206000209050919050565b60006020601f8301049050919050565b600082821b905092915050565b6000600883026104867fffffffffffffffffffffffffffffffffffffffffffffffffffffffffffffffff82610449565b6104908683610449565b95508019841693508086168417925050509392505050565b6000819050919050565b60006104cd6104c86104c3846101fe565b6104a8565b6101fe565b9050919050565b6000819050919050565b6104e7836104b2565b6104fb6104f3826104d4565b848454610456565b825550505050565b600090565b610510610503565b61051b8184846104de565b505050565b5b8181101561053f57610534600082610508565b600181019050610521565b5050565b601f8211156105845761055581610424565b61055e84610439565b8101602085101561056d578190505b61058161057985610439565b830182610520565b50505b505050565b600082821c905092915050565b60006105a760001984600802610589565b1980831691505092915050565b60006105c08383610596565b9150826002028217905092915050565b6105d98261014c565b67ffffffffffffffff8111156105f2576105f1610250565b5b6105fc82546103f3565b610607828285610543565b600060209050601f83116001811461063a5760008415610628578287015190505b61063285826105b4565b86555061069a565b601f19841661064886610424565b60005b828110156106705784890151825560018201915060208501945060208101905061064b565b8683101561068d5784890151610689601f891682610596565b8355505b6001600288020188555050505b50505050505056fea2646970667358221220f64a2bf7e3560dc68eb8bffb2b2860830751915789ee0c170dc3703de811838a64736f6c63430008120033",
  "immutableReferences": {},
  "source": "// SPDX-License-Identifier: MIT\npragma solidity >=0.4.22 <0.9.0;\n\ncontract SimpleStorage {\n  uint256 value;\n  string message;\n\n  function read() public view returns (uint256) {\n    return value;\n  }\n\n  function multby2() public view returns (string memory){\n    return message;\n  }\n\n\n  function write(string memory newValue) public {\n    message = newValue;\n  }\n}\n",
  "sourcePath": "/Users/shesha4572/Projects/votingdapp/truffle/contracts/SimpleStorage.sol",
  "compiler": {
    "name": "solc",
    "version": "0.8.18+commit.87f61d96.Emscripten.clang"
  },
  "schemaVersion": "3.4.12",
  "updatedAt": "2023-03-22T06:47:53.499Z",
  "networkType": "ethereum",
  "devdoc": {
    "kind": "dev",
    "methods": {},
    "version": 1
  },
  "userdoc": {
    "kind": "user",
    "methods": {},
    "version": 1
  }
}